:020000040800F2
:10000000008001208D130008DF130008ED130008A5
:10001000F3130008F9130008FF13000800000000A4
:1000200000000000000000000000000005140008AF
:10003000131400080000000021140008610D0008DE
:10004000DD130008DD130008DD130008DD130008D0
:10005000DD130008DD130008A10A0008C50A000826
:10006000E90A0008DD130008DD130008DD130008AD
:10007000DD130008DD130008DD130008DD130008A0
:10008000DD130008DD130008DD130008DD13000890
:10009000DD130008DD130008DD130008DD13000880
:1000A000DD130008DD130008DD1300087D0D0008D6
:1000B000DD130008D90D0008DD130008DD1300086A
:1000C000DD130008DD130008DD130008DD13000850
:1000D000DD130008DD130008DD130008DD13000840
:1000E0000D0B0008DD130008DD130008DD13000808
:1000F000DD130008DD130008DD130008DD13000820
:10010000DD130008DD130008DD130008DD1300080F
:10011000DD130008DD130008DD130008DD130008FF
:10012000DD130008DD130008DD130008DD130008EF
:10013000DD130008DD130008DD130008DD130008DF
:10014000DD130008DD130008DD130008DD130008CF
:10015000DD130008DD130008DD130008DD130008BF
:10016000DD130008DD130008DD130008DD130008AF
:10017000DD130008DD130008DD130008DD1300089F
:08018000DD130008DD13000887
:1001880010B5054C237833B9044B13B10448AFF3C9
:1001980000800123237010BD14000020000000001F
:1001A800D416000808B5034B1BB103490348AFF345
:1001B800008008BD0000000018000020D4160008C8
:1001C800034613F8012B002AFBD1181A013870478F
:1001D80081F0004102E000BF83F0004330B54FEAF0
:1001E80041044FEA430594EA050F08BF90EA020F5D
:1001F8001FBF54EA000C55EA020C7FEA645C7FEAF0
:10020800655C00F0E2804FEA5454D4EB5555B8BF12
:100218006D420CDD2C4480EA020281EA030382EA83
:10022800000083EA010180EA020281EA0303362D15
:1002380088BF30BD11F0004F4FEA01314FF4801CE8
:100248004CEA113102D0404261EB410113F0004FFA
:100258004FEA03334CEA133302D0524263EB4303B1
:1002680094EA050F00F0A780A4F10104D5F1200E4F
:100278000DDB02FA0EFC22FA05F2801841F10001AA
:1002880003FA0EF2801843FA05F359410EE0A5F17E
:1002980020050EF1200E012A03FA0EFC28BF4CF0AF
:1002A800020C43FA05F3C01851EBE37101F0004565
:1002B80007D54FF0000EDCF1000C7EEB00006EEB72
:1002C8000101B1F5801F1BD3B1F5001F0CD34908FC
:1002D8005FEA30004FEA3C0C04F101044FEA445253
:1002E80012F5800F80F09A80BCF1004F08BF5FEADA
:1002F800500C50F1000041EB045141EA050130BDBA
:100308005FEA4C0C404141EB010111F4801FA4F15C
:100318000104E9D191F0000F04BF01460020B1FAB1
:1003280081F308BF2033A3F10B03B3F120020CDAE9
:100338000C3208DD02F1140CC2F10C0201FA0CF0C7
:1003480021FA02F10CE002F11402D8BFC2F1200C2C
:1003580001FA02F120FA0CFCDCBF41EA0C019040E2
:10036800E41AA2BF01EB0451294330BD6FEA04042B
:100378001F3C1CDA0C340EDC04F11404C4F1200216
:1003880020FA04F001FA02F340EA030021FA04F328
:1003980045EA030130BDC4F10C04C4F1200220FA7F
:1003A80002F001FA04F340EA0300294630BD21FABD
:1003B80004F0294630BD94F0000F83F4801306BF83
:1003C80081F480110134013D4EE77FEA645C18BF77
:1003D8007FEA655C29D094EA050F08BF90EA020F0E
:1003E80005D054EA000C04BF1946104630BD91EA06
:1003F800030F1EBF0021002030BD5FEA545C05D109
:100408004000494128BF41F0004130BD14F5800447
:100418003CBF01F5801130BD01F0004545F0FE41BB
:1004280041F470014FF0000030BD7FEA645C1ABFF0
:10043800194610467FEA655C1CBF0B46024650EA27
:10044800013406BF52EA033591EA030F41F4002153
:1004580030BD00BF90F0000F04BF0021704730B5D9
:100468004FF4806404F132044FF000054FF00001AE
:1004780050E700BF90F0000F04BF0021704730B56F
:100488004FF4806404F1320410F0004548BF404244
:100498004FF000013EE700BF42004FEAE2014FEA99
:1004A80031014FEA02701FBF12F07F4393F07F4F74
:1004B80081F06051704792F0000F14BF93F07F4FA6
:1004C800704730B54FF4607401F0004521F00041E9
:1004D80020E700BF50EA010208BF704730B54FF06F
:1004E80000050AE050EA010208BF704730B511F074
:1004F800004502D5404261EB41014FF4806404F1AC
:1005080032045FEA915C3FF4DCAE4FF003025FEA2D
:10051800DC0C18BF03325FEADC0C18BF033202EBB5
:10052800DC02C2F1200300FA03FC20FA02F001FA0F
:1005380003FE40EA0E0021FA02F11444C1E600BFAE
:1005480070B54FF0FF0C4CF4E06C1CEA11541DBF61
:100558001CEA135594EA0C0F95EA0C0F00F0DEF82C
:100568002C4481EA030621EA4C5123EA4C5350EA11
:10057800013518BF52EA033541F4801143F4801362
:1005880038D0A0FB02CE4FF00005E1FB02E506F0F3
:100598000042E0FB03E54FF00006E1FB03569CF048
:1005A800000F18BF4EF0010EA4F1FF04B6F5007F4E
:1005B80064F5407404D25FEA4E0E6D4146EB0606C0
:1005C80042EAC62141EA55514FEAC52040EA5E5049
:1005D8004FEACE2EB4F1FD0C88BFBCF5E06F1ED8F3
:1005E800BEF1004F08BF5FEA500E50F1000041EB2A
:1005F800045170BD06F0004646EA010140EA0200D7
:1006080081EA0301B4EB5C04C2BFD4EB0C0541EAF8
:10061800045170BD41F480114FF0000E013C00F30D
:10062800AB8014F1360FDEBF002001F0004170BD31
:10063800C4F10004203C35DA0C341BDC04F114044A
:10064800C4F1200500FA05F320FA04F001FA05F2D6
:1006580040EA020001F0004221F0004110EBD370A3
:1006680021FA04F642EB06015EEA430E08BF20EACF
:10067800D37070BDC4F10C04C4F1200500FA04F372
:1006880020FA05F001FA04F240EA020001F0004104
:1006980010EBD37041F100015EEA430E08BF20EA77
:1006A800D37070BDC4F1200500FA05F24EEA020EBF
:1006B80020FA04F301FA05F243EA020321FA04F0EE
:1006C80001F0004121FA04F220EA020000EBD370A5
:1006D8005EEA430E08BF20EAD37070BD94F0000FA5
:1006E8000FD101F00046400041EB010111F4801FD9
:1006F80008BF013CF7D041EA060195F0000F18BF8A
:10070800704703F00046520043EB030313F4801FC5
:1007180008BF013DF7D043EA0603704794EA0C0F7F
:100728000CEA135518BF95EA0C0F0CD050EA410695
:1007380018BF52EA4306D1D181EA030101F0004112
:100748004FF0000070BD50EA410606BF104619463A
:1007580052EA430619D094EA0C0F02D150EA013646
:1007680013D195EA0C0F05D152EA03361CBF104687
:1007780019460AD181EA030101F0004141F0FE4126
:1007880041F470014FF0000070BD41F0FE4141F4AA
:10079800780170BD70B54FF0FF0C4CF4E06C1CEAAA
:1007A80011541DBF1CEA135594EA0C0F95EA0C0F5F
:1007B80000F0A7F8A4EB050481EA030E52EA03351A
:1007C8004FEA013100F088804FEA03334FF080553B
:1007D80045EA131343EA12634FEA022245EA111568
:1007E80045EA10654FEA00260EF000419D4208BF19
:1007F800964244F1FD0404F5407402D25B084FEAC6
:100808003202B61A65EB03055B084FEA32024FF471
:1008180080104FF4002CB6EB020E75EB030E22BFCE
:10082800B61A754640EA0C005B084FEA3202B6EB8E
:10083800020E75EB030E22BFB61A754640EA5C003D
:100848005B084FEA3202B6EB020E75EB030E22BFCD
:10085800B61A754640EA9C005B084FEA3202B6EBCE
:10086800020E75EB030E22BFB61A754640EADC008D
:1008780055EA060E18D04FEA051545EA16754FEAEF
:1008880006164FEAC30343EA52734FEAC2025FEA0D
:100898001C1CC0D111F4801F0BD141EA00014FF09C
:1008A80000004FF0004CB6E711F4801F04BF01436D
:1008B8000020B4F1FD0C88BFBCF5E06F3FF6AFAE89
:1008C800B5EB030C04BFB6EB020C5FEA500C50F119
:1008D800000041EB045170BD0EF0004E4EEA11319C
:1008E80014EB5C04C2BFD4EB0C0541EA045170BDA3
:1008F80041F480114FF0000E013C90E645EA060EE7
:100908008DE60CEA135594EA0C0F08BF95EA0C0F14
:100918003FF43BAF94EA0C0F0AD150EA01347FF45C
:1009280034AF95EA0C0F7FF425AF104619462CE733
:1009380095EA0C0F06D152EA03353FF4FDAE104696
:10094800194622E750EA410618BF52EA43067FF4E7
:10095800C5AE50EA41047FF40DAF52EA43057FF477
:10096800EBAE12E74FEA4102B2F1E04324BFB3F520
:10097800001CDCF1FE5C0DD901F0004C4FEAC0020E
:100988004CEA5070B2F1004F40EB830008BF20F0F2
:100998000100704711F0804F21D113F13872BCBFAC
:1009A80001F00040704741F480114FEA5252C2F101
:1009B8001802C2F1200C10FA0CF320FA02F018BF4A
:1009C80040F001004FEAC1234FEAD32303FA0CFC9D
:1009D80040EA0C0023FA02F34FEA4303CCE77FEA2C
:1009E800625307D150EA01331EBF4FF0FE4040F476
:1009F8004000704701F0004040F0FE4040F4000025
:100A0800704700BF80B588B000AFF860B9607A6001
:100A18000023FB770023FB740023BB61B868FFF752
:100A2800CFFB7861F9681B4800F028FB00F076F9E5
:100A380020E0BA697B699A4216D207F11303194676
:100A4800144800F038FB0346002B13D0BA68BB6982
:100A580013441A78FB7C9A4203D1BB690133BB610A
:100A680008E00023BB6105E0BA697B699A4201D1BD
:100A78000123FB7700F064F903461A467B689A4223
:100A880002D2FB7F002BD4D0FB7F18462037BD460F
:100A980080BD00BF0010014080B500AF054A054B7E
:100AA8005B6943F001035361034B1B68984700BF20
:100AB80080BD00BF003C01404C00002080B500AF65
:100AC800054A054B5B6943F002035361034B1B68FE
:100AD800984700BF80BD00BF003C01404000002097
:100AE80080B500AF054A054B5B6943F004035361C9
:100AF800034B1B68984700BF80BD00BF003C014006
:100B08004400002080B500AF104B5B6903F400631C
:100B1800002B09D00D4A0D4B5B6943F40063536108
:100B28000B4B1B6898470EE0084B5B6903F4805336
:100B3800002B08D0054A054B5B6943F48053536189
:100B4800044B1B68984700BF80BD00BF003C0140B4
:100B5800480000203C00002080B400AF074B1B6910
:100B6800002B05DA054B064A5A60044B054A5A60C1
:100B780000BFBD465DF8047B704700BF003C0240E3
:100B880023016745AB89EFCD80B584B000AF7860AD
:100B98000B46FB700823FB7300F060F80346FB73F9
:100BA800FB7B082B1CD1114A104B1B6923F44073A3
:100BB80013610E4A0D4B1B6913610C4A0B4B1B69E1
:100BC80043F0010313617B68FA781A7000F046F865
:100BD8000346FB73054A054B1B6923F001031361A8
:100BE800FB7B18461037BD4680BD00BF003C024065
:100BF80080B483B000AF0823FB71174BDB6803F4A4
:100C08008033B3F5803F02D10123FB711CE0124B06
:100C1800DB6803F01003002B02D00523FB7113E0FF
:100C28000D4BDB6803F0EF03002B02D00623FB71AA
:100C38000AE0094BDB6803F00203002B02D007230C
:100C4800FB7101E00823FB71FB7918460C37BD46A0
:100C58005DF8047B704700BF003C024080B582B05D
:100C680000AF0823FB71FFF7C3FF0346FB7103E0E6
:100C7800FFF7BEFF0346FB71FB79DBB2012BF7D010
:100C8800FB79DBB218460837BD4680BD80B400AF9B
:100C9800124A124B1B6843F0010313600F4B0022EA
:100CA8009A600E4A0D4B1B6823F0A16323F480332E
:100CB80013600A4B0A4A5A60084B0A4AC3F8842050
:100CC800064A064B1B6823F480231360034B00225B
:100CD800DA6000BFBD465DF8047B7047003802400B
:100CE800103000240030002080B483B000AF78605A
:100CF800094A094B1B6843F007031360064A7B68DF
:100D0800013B5360044A044B5B68936000BF0C3797
:100D1800BD465DF8047B704710E000E080B400AF8A
:100D2800054A054B5B689360044B00221A6000BFBC
:100D3800BD465DF8047B704710E000E030000020FD
:100D480080B400AF034B1B681846BD465DF8047BB2
:100D5800704700BF3000002080B400AF044B1B6810
:100D68000133034A136000BFBD465DF8047B70473A
:100D78003000002080B400AF124A124B1B8A9BB28D
:100D880023F002039BB213820F4B1B78DBB2002BBC
:100D980006D10C4B00225A620B4B01221A700BE051
:100DA800094B1B78DBB2012B06D1064B5B6B074A5C
:100DB8001360054B00221A7000BFBD465DF8047B26
:100DC800704700BF000001403800002034000020B8
:100DD80080B500AF094B1B8A9BB203F00103002BBF
:100DE8000AD0064A054B1B8A9BB223F001039BB22B
:100DF8001382034B1B68984700BF80BD0004004066
:100E080050000020B0B586B000AFF860B960FB684C
:100E1800874A93423CD1874A864B1B6B43F00103B8
:100E28001363854A844B1B6823F030031360824A9E
:100E3800814B1B6823F0C00313607F4A7E4B1B68FD
:100E480043F0200313607C4A7B4B1B6843F080030C
:100E58001360794A784B1B6A23F470631362764AED
:100E6800754B1B6A23F470431362734A724B1B6AF7
:100E780043F4E0631362704A6F4B1B6A43F4E04328
:100E880013626C4A6B4B1B6C43F40033136480E0B1
:100E9800FB686A4A93423CD1664A664B1B6B43F037
:100EA80001031363644A644B1B6823F440231360F3
:100EB800614A614B1B6823F4401313605E4A5E4B22
:100EC8001B6843F4002313605B4A5B4B1B6843F4C5
:100ED80000131360584A584B5B6A23F0F0035362BF
:100EE800554A554B5B6A23F470635362524A524B1E
:100EF8005B6A43F0700353624F4A4F4B5B6A43F49B
:100F0800E06353624B4A4B4B5B6C43F010035364F2
:100F18003FE0FB684A4A93423BD1464A454B1B6B2C
:100F280043F004031363444A434B1B6823F44053C0
:100F38001360414A404B1B6823F4404313603E4A08
:100F48003D4B1B6843F4005313603B4A3A4B1B6804
:100F580043F400431360384A374B1B6A23F070632D
:100F68001362354A344B1B6A23F070431362324ACA
:100F7800314B1B6A43F0006313622F4A2E4B1B6AE6
:100F880043F0004313622B4A2A4B5B6C43F0200367
:100F980053642C4B1B681846FFF75CFA04460D4651
:100FA800B868FFF757FA4FF00002274BFFF7C8FA67
:100FB80002460B4620462946FFF7ECFB03460C4643
:100FC80018462146FFF7CEFC03467B61D7ED057A2C
:100FD800FCEEE77AC7ED017ABB887B827B8A07EE55
:100FE800903AF8EEE77A97ED057A77EE677AB3EEFE
:100FF800007A67EE877AFCEEE77AC7ED017A3B79EB
:101008007B747B8A1B019AB27B7C9BB213449AB295
:10101800FB681A81FB689B899BB243F4005343F039
:101028000C039AB2FB689A8100BF1837BD46B0BD61
:101038000044004000380240000002400010014017
:1010480000140140000000200000304080B483B04C
:1010580000AF78600B46FB7000BF7B681B889BB2B3
:1010680003F08003002BF8D0FB789AB27B689A8053
:1010780000BF0C37BD465DF8047B704780B584B06F
:1010880000AF786039600023FB600AE03A68FB68CB
:1010980013441B7819467868FFF7D8FFFB680133BB
:1010A800FB603A68FB6813441B78002BEED100BF45
:1010B8001037BD4680BD80B485B000AF7860396018
:1010C8000023FB737B681B889BB203F02003002B73
:1010D80007D07B689B889BB2DAB23B681A70012301
:1010E800FB73FB7B18461437BD465DF8047B7047DD
:1010F80080B485B000AF78600023FB600023BB603C
:101108000023FB600EE00023BB6003E000BFBB6868
:101118000133BB60BB6840F2E1429342F6D9FB68F9
:101128000133FB60FA687B689A42ECD300BF14373E
:10113800BD465DF8047B704780B588B000AF0023DA
:10114800FB750023BB820023FB740023FB71002383
:10115800FB60FFF79BFD00F09DF96F4B1B686F4A22
:10116800A2FB03239B091846FFF7BEFD4FF4E131AC
:101178006B48FFF747FE4FF4E1316A48FFF742FE3C
:1011880069496848FFF77AFF4FF47A7267496848F7
:10119800FFF738FC0346002B04D066496148FFF787
:1011A8006DFF03E064495F48FFF768FF6420FFF7BD
:1011B8009FFF4FF47A725D496048FFF723FC0346AE
:1011C800002B04D05E495748FFF758FF03E05D49FC
:1011D8005448FFF753FF6420FFF78AFF4FF47A72F1
:1011E80052495948FFF70EFC0346002B04D05749D3
:1011F8004C48FFF743FF03E055494A48FFF73EFFD5
:101208006420FFF775FF42F2107248495148FFF712
:10121800F9FB0346002B04D04F494248FFF72EFF45
:1012280003E04E493F48FFF729FF6420FFF760FFBE
:1012380042F210723D494A48FFF7E4FB0346002B8F
:1012480004D048493748FFF719FF03E046493548B5
:10125800FFF714FF6420FFF74BFF4FF47A7233490E
:101268004248FFF7CFFB0346002B4FD00A20FFF779
:101278003FFF3F492A48FFF701FFFFF76DFC0023B6
:10128800FB77FB1D19462648FFF715FF0346002B81
:10129800F7D0FB790A2BF4D1FB7F0133FB77FB7F77
:1012A8000C2B00D0EDE700BF0023BB61FB1D1946E6
:1012B8001B48FFF700FF0346002BF7D0BB6903F17B
:1012C800006303F5C023FA7911461846FFF75CFC62
:1012D800BB690133BB61BB6940F2FC429342E5D173
:1012E800FB7919460F48FFF7B1FE22490D48FFF771
:1012F800C5FE00BF040006081F4B1B68BB60BB6827
:1013080083F308881E48D0F800F003E01B4905481D
:10131800FFF7B4FEFEE700BF00000020D34D6210C7
:101328000010014000440040EC16000804170008B3
:1013380008170008101700081C1700082C170008C9
:1013480034170008441700085817000868170008E1
:101358007C17000890170008B8170008CC17000879
:10136800DC170008041800081418000820180008E2
:10137800301800085418000800000608681800080B
:10138800FC120008DFF834D0002103E00C4B5B5856
:10139800435004310B480C4B42189A42F6D30B4A7F
:1013A80002E0002342F8043B094B9A42F9D300F0CB
:1013B8003BF800F067F9FFF7BFFE70470080012097
:1013C8007C180008000000201400002014000020F1
:1013D80054000020FEE780B400AF00BFBD465DF8B2
:1013E800047B704780B400AFFEE780B400AFFEE72F
:1013F80080B400AFFEE780B400AFFEE780B400AF72
:1014080000BFBD465DF8047B704780B400AF00BFE5
:10141800BD465DF8047B704780B400AF00BFBD4691
:101428005DF8047B7047000080B500AF164A164B84
:10143800D3F8883043F47003C2F88830134A134B4A
:101448001B6843F001031360104B00229A600F4A97
:101458000E4B1B6823F0847323F4803313600B4B0B
:101468000B4A5A60094A094B1B6823F4802313600E
:10147800064B0022DA6000F089F8034B4FF0006257
:101488009A6000BF80BD00BF00ED00E00038024058
:101498001030002480B487B000AF00233B610023E4
:1014A8007B610223FB600023BB6002237B60324B1D
:1014B8009B6803F00C033B613B69042B07D0082BA6
:1014C80009D0002B3DD12D4B2D4A1A603DE02B4B06
:1014D8002C4A1A6039E0284B5B689B0D03F0010326
:1014E800BB60254B5B6803F03F037B60BB68002B48
:1014F8000CD0244A7B68B2FBF3F31F4A5268920966
:10150800C2F3080202FB03F37B610BE01C4A7B6811
:10151800B2FBF3F3184A52689209C2F3080202FBBD
:1015280003F37B61144B5B681B0C03F0030301336B
:101538005B00FB607A69FB68B2FBF3F30F4A136048
:1015480003E00E4B0E4A1A6000BF0B4B9B681B0949
:1015580003F00F030C4AD35CDBB23B61074B1A68FC
:101568003B6922FA03F3054A136000BF1C37BD46E6
:101578005DF8047B704700BF00380240000000207F
:101588000024F40040787D010400002080B483B07A
:1015980000AF00237B6000233B60364A354B1B6855
:1015A80043F480331360334B1B6803F400333B6010
:1015B8007B6801337B603B68002B03D17B68B3F504
:1015C800A06FF0D12B4B1B6803F40033002B02D023
:1015D80001233B6001E000233B603B68012B42D1C3
:1015E800244A244B1B6C43F080531364224A224B39
:1015F8001B6843F4404313601E4A1E4B9B6893606C
:101608001C4A1C4B9B6843F400439360194A194BCE
:101618009B6843F4A0539360164B184A5A60154AC6
:10162800144B1B6843F08073136000BF114B1B6899
:1016380003F00073002BF9D0114B40F205721A60C9
:101648000C4A0C4B9B6823F003039360094A094B2F
:101658009B6843F00203936000BF064B9B6803F04E
:101668000C03082BF9D100BF0C37BD465DF8047B8D
:10167800704700BF0038024000700040195440070E
:10168800003C024070B50D4E0D4CA41BA410002563
:10169800A54209D10B4E0C4C00F018F8A41BA4105D
:1016A8000025A54205D170BD56F82530984701356B
:1016B800EEE756F8253098470135F2E77418000828
:1016C800741800087418000878180008F8B500BFE6
:1016D800F8BC08BC9E467047F8B500BFF8BC08BC0B
:0416E8009E46704763
:1016EC004F5441204C6F6164657220737461727445
:1016FC006564202E2E2E0A004F4B000041540D0A1B
:10170C0000000000574946492069732055700A00B3
:10171C005749464920697320446F776E0A000000D0
:10172C00415445300D0A00004563686F20446973CD
:10173C0061626C65640A00004563686F206E6F74AB
:10174C002044697361626C65640A000041542B4348
:10175C00574D4F44453D310D0A00000053746174E0
:10176C00696F6E204D6F646520446F6E650A0000D2
:10177C0053746174696F6E204D6F646520455252CD
:10178C004F520A0041542B43574A41503D22776136
:10179C00676E61745F706C7573222C227761676E53
:1017AC006174313131220D0A000000004E657477EE
:1017BC006F726B20436F6E6E65637465640A000014
:1017CC004E6574776F726B204552524F520A00006F
:1017DC0041542B43495053544152543D225443508D
:1017EC00222C223139322E3136382E312E31302204
:1017FC002C333030300D0A0054435020436F6E6E42
:10180C0065637465640A0000544350204552524F7E
:10181C00520A000041542B43495053454E443D332A
:10182C00350D0A00474554202F646F776E6C6F613D
:10183C00642F6669726D2E62696E20485454502F65
:10184C00312E310D0A0D0A0042696E6172792072D7
:10185C00656365697665640A0000000053656E6413
:08186C00204552524F520A00C0
:04187400AD010008BA
:0418780089010008DA
:10187C00007A030A000000000000000001020304CB
:04188C00060708093A
:040000050800138D4F
:00000001FF
